{
  "_format": "hh-sol-artifact-1",
  "contractName": "CreateDatacoin",
  "sourceName": "contracts/CreateDatacoin.sol",
  "abi": [
    {
      "inputs": [
        {
          "internalType": "address",
          "name": "_dataCoinFactory",
          "type": "address"
        }
      ],
      "stateMutability": "nonpayable",
      "type": "constructor"
    },
    {
      "inputs": [],
      "name": "createDataCoin",
      "outputs": [],
      "stateMutability": "nonpayable",
      "type": "function"
    },
    {
      "inputs": [],
      "name": "dataCoin",
      "outputs": [
        {
          "internalType": "contract IDataCoin",
          "name": "",
          "type": "address"
        }
      ],
      "stateMutability": "view",
      "type": "function"
    },
    {
      "inputs": [],
      "name": "dataCoinFactory",
      "outputs": [
        {
          "internalType": "contract IDataCoinFactory",
          "name": "",
          "type": "address"
        }
      ],
      "stateMutability": "view",
      "type": "function"
    },
    {
      "inputs": [],
      "name": "getApprovedLockTokenAndConfig",
      "outputs": [
        {
          "internalType": "address[]",
          "name": "",
          "type": "address[]"
        },
        {
          "components": [
            {
              "internalType": "bool",
              "name": "isActive",
              "type": "bool"
            },
            {
              "internalType": "uint256",
              "name": "minLockAmount",
              "type": "uint256"
            },
            {
              "internalType": "uint256",
              "name": "buyTaxBps",
              "type": "uint256"
            },
            {
              "internalType": "uint256",
              "name": "sellTaxBps",
              "type": "uint256"
            },
            {
              "internalType": "uint256",
              "name": "mintTaxBps",
              "type": "uint256"
            },
            {
              "internalType": "uint256",
              "name": "lighthouseShareBps",
              "type": "uint256"
            }
          ],
          "internalType": "struct IDataCoinFactory.AssetConfig[]",
          "name": "",
          "type": "tuple[]"
        }
      ],
      "stateMutability": "view",
      "type": "function"
    },
    {
      "inputs": [
        {
          "internalType": "address",
          "name": "to",
          "type": "address"
        },
        {
          "internalType": "uint256",
          "name": "amount",
          "type": "uint256"
        }
      ],
      "name": "mintDataCoin",
      "outputs": [],
      "stateMutability": "nonpayable",
      "type": "function"
    },
    {
      "inputs": [],
      "name": "pool",
      "outputs": [
        {
          "internalType": "address",
          "name": "",
          "type": "address"
        }
      ],
      "stateMutability": "view",
      "type": "function"
    }
  ],
  "bytecode": "0x6080604052348015600f57600080fd5b50604051610b1c380380610b1c833981016040819052602c916050565b600080546001600160a01b0319166001600160a01b0392909216919091179055607e565b600060208284031215606157600080fd5b81516001600160a01b0381168114607757600080fd5b9392505050565b610a8f8061008d6000396000f3fe608060405234801561001057600080fd5b50600436106100625760003560e01c806316f0115b1461006757806345ad3e63146100975780634c5281d3146100aa578063939353a4146100c05780639ccc42b8146100ca578063af957439146100dd575b600080fd5b60025461007a906001600160a01b031681565b6040516001600160a01b0390911681526020015b60405180910390f35b60005461007a906001600160a01b031681565b6100b26100f0565b60405161008e92919061064d565b6100c86102d4565b005b60015461007a906001600160a01b031681565b6100c86100eb36600461071f565b6105e3565b60608060008060009054906101000a90046001600160a01b03166001600160a01b0316630e74fa0b6040518163ffffffff1660e01b8152600401600060405180830381865afa158015610147573d6000803e3d6000fd5b505050506040513d6000823e601f3d908101601f1916820160405261016f9190810190610792565b90506000815167ffffffffffffffff81111561018d5761018d61074b565b6040519080825280602002602001820160405280156101f957816020015b6101e66040518060c0016040528060001515815260200160008152602001600081526020016000815260200160008152602001600081525090565b8152602001906001900390816101ab5790505b50905060005b82518110156102ca5760005483516001600160a01b039091169063911d68bc9085908490811061023157610231610844565b60200260200101516040518263ffffffff1660e01b815260040161026491906001600160a01b0391909116815260200190565b60c060405180830381865afa158015610281573d6000803e3d6000fd5b505050506040513d601f19601f820116820180604052508101906102a5919061086f565b8282815181106102b7576102b7610844565b60209081029190910101526001016101ff565b5090939092509050565b60006040518060400160405280601081526020016f20b6b0bd34b733902230ba30b1b7b4b760811b815250905060006040518060400160405280600381526020016241444360e81b81525090506000604051806060016040528060218152602001610a39602191396000805460405163b600f57160e01b8152732ea104bcdf3a448409f2dc626e606fdcf969a5ae6004820181905293945033936103e8936301e133809361177093610bb89392916001600160a01b03169063b600f57190602401602060405180830381865afa1580156103b2573d6000803e3d6000fd5b505050506040513d601f19601f820116820180604052508101906103d691906108ee565b90506000423360405160200161040892919091825260601b6bffffffffffffffffffffffff1916602082015260340190565b60408051808303601f190181529082905280516020909101206323b872dd60e01b82523360048301523060248301526044820184905291506001600160a01b038416906323b872dd906064016020604051808303816000875af1158015610473573d6000803e3d6000fd5b505050506040513d601f19601f820116820180604052508101906104979190610907565b5060005460405163095ea7b360e01b81526001600160a01b039182166004820152602481018490529084169063095ea7b3906044016020604051808303816000875af11580156104eb573d6000803e3d6000fd5b505050506040513d601f19601f8201168201806040525081019061050f9190610907565b5060008060008054906101000a90046001600160a01b03166001600160a01b0316633dea49128e8e8e8e8e8e8e8e8e8e8e6040518c63ffffffff1660e01b81526004016105669b9a9998979695949392919061096f565b60408051808303816000875af1158015610584573d6000803e3d6000fd5b505050506040513d601f19601f820116820180604052508101906105a891906109fe565b600180546001600160a01b039384166001600160a01b0319918216179091556002805492909316911617905550505050505050505050505050565b6001546040516340c10f1960e01b81526001600160a01b03848116600483015260248201849052909116906340c10f1990604401600060405180830381600087803b15801561063157600080fd5b505af1158015610645573d6000803e3d6000fd5b505050505050565b6040808252835182820181905260009190606090818501906020808901865b838110156106915781516001600160a01b03168552938201939082019060010161066c565b5050868303818801528751808452888201938201925060005b818110156106f85784518051151585528381015184860152878101518886015286810151878601526080808201519086015260a090810151908501529382019360c0909301926001016106aa565b50919998505050505050505050565b6001600160a01b038116811461071c57600080fd5b50565b6000806040838503121561073257600080fd5b823561073d81610707565b946020939093013593505050565b634e487b7160e01b600052604160045260246000fd5b604051601f8201601f1916810167ffffffffffffffff8111828210171561078a5761078a61074b565b604052919050565b600060208083850312156107a557600080fd5b825167ffffffffffffffff808211156107bd57600080fd5b818501915085601f8301126107d157600080fd5b8151818111156107e3576107e361074b565b8060051b91506107f4848301610761565b818152918301840191848101908884111561080e57600080fd5b938501935b83851015610838578451925061082883610707565b8282529385019390850190610813565b98975050505050505050565b634e487b7160e01b600052603260045260246000fd5b8051801515811461086a57600080fd5b919050565b600060c0828403121561088157600080fd5b60405160c0810181811067ffffffffffffffff821117156108a4576108a461074b565b6040526108b08361085a565b81526020830151602082015260408301516040820152606083015160608201526080830151608082015260a083015160a08201528091505092915050565b60006020828403121561090057600080fd5b5051919050565b60006020828403121561091957600080fd5b6109228261085a565b9392505050565b6000815180845260005b8181101561094f57602081850181015186830182015201610933565b506000602082860101526020601f19601f83011685010191505092915050565b60006101608083526109838184018f610929565b90508281036020840152610997818e610929565b905082810360408401526109ab818d610929565b6001600160a01b039b8c166060850152608084019a909a52505060a081019690965260c086019490945260e085019290925290941661010083015261012082019390935261014001919091529392505050565b60008060408385031215610a1157600080fd5b8251610a1c81610707565b6020840151909250610a2d81610707565b80915050925092905056fe68747470733a2f2f6578616d706c652e636f6d2f646174612d636f696e2e706e67a264697066735822122059c08e37223c8b960ba8c56b7ba1278a6b73deb6055c37b64b1e23366e2b477864736f6c63430008190033",
  "linkReferences": {},
  "deployedLinkReferences": {}
}