{
  "_format": "hh-sol-artifact-1",
  "contractName": "DataTokenMarketplace",
  "sourceName": "contracts/DataTokenMarketplace.sol",
  "abi": [
    {
      "inputs": [
        {
          "internalType": "address",
          "name": "_usdc",
          "type": "address"
        },
        {
          "internalType": "address",
          "name": "_treasury",
          "type": "address"
        }
      ],
      "stateMutability": "nonpayable",
      "type": "constructor"
    },
    {
      "anonymous": false,
      "inputs": [
        {
          "indexed": true,
          "internalType": "address",
          "name": "token",
          "type": "address"
        },
        {
          "indexed": true,
          "internalType": "address",
          "name": "buyer",
          "type": "address"
        }
      ],
      "name": "AccessGranted",
      "type": "event"
    },
    {
      "anonymous": false,
      "inputs": [
        {
          "indexed": true,
          "internalType": "address",
          "name": "token",
          "type": "address"
        },
        {
          "indexed": true,
          "internalType": "address",
          "name": "buyer",
          "type": "address"
        },
        {
          "indexed": false,
          "internalType": "uint256",
          "name": "usdcIn",
          "type": "uint256"
        },
        {
          "indexed": false,
          "internalType": "uint256",
          "name": "fee",
          "type": "uint256"
        },
        {
          "indexed": false,
          "internalType": "uint256",
          "name": "tokensOut",
          "type": "uint256"
        }
      ],
      "name": "Bought",
      "type": "event"
    },
    {
      "anonymous": false,
      "inputs": [
        {
          "indexed": true,
          "internalType": "address",
          "name": "token",
          "type": "address"
        },
        {
          "indexed": true,
          "internalType": "address",
          "name": "creator",
          "type": "address"
        },
        {
          "indexed": false,
          "internalType": "uint256",
          "name": "tokenSeed",
          "type": "uint256"
        },
        {
          "indexed": false,
          "internalType": "uint256",
          "name": "usdcSeed",
          "type": "uint256"
        }
      ],
      "name": "PoolCreated",
      "type": "event"
    },
    {
      "anonymous": false,
      "inputs": [
        {
          "indexed": true,
          "internalType": "address",
          "name": "token",
          "type": "address"
        },
        {
          "indexed": true,
          "internalType": "address",
          "name": "seller",
          "type": "address"
        },
        {
          "indexed": false,
          "internalType": "uint256",
          "name": "tokensIn",
          "type": "uint256"
        },
        {
          "indexed": false,
          "internalType": "uint256",
          "name": "usdcOut",
          "type": "uint256"
        }
      ],
      "name": "Sold",
      "type": "event"
    },
    {
      "inputs": [],
      "name": "BPS",
      "outputs": [
        {
          "internalType": "uint256",
          "name": "",
          "type": "uint256"
        }
      ],
      "stateMutability": "view",
      "type": "function"
    },
    {
      "inputs": [],
      "name": "FEE_BPS",
      "outputs": [
        {
          "internalType": "uint256",
          "name": "",
          "type": "uint256"
        }
      ],
      "stateMutability": "view",
      "type": "function"
    },
    {
      "inputs": [
        {
          "internalType": "address",
          "name": "token",
          "type": "address"
        },
        {
          "internalType": "uint256",
          "name": "usdcIn",
          "type": "uint256"
        },
        {
          "internalType": "uint256",
          "name": "minTokensOut",
          "type": "uint256"
        }
      ],
      "name": "buy",
      "outputs": [],
      "stateMutability": "nonpayable",
      "type": "function"
    },
    {
      "inputs": [
        {
          "internalType": "address",
          "name": "token",
          "type": "address"
        }
      ],
      "name": "getPriceUSDCperToken",
      "outputs": [
        {
          "internalType": "uint256",
          "name": "",
          "type": "uint256"
        }
      ],
      "stateMutability": "view",
      "type": "function"
    },
    {
      "inputs": [
        {
          "internalType": "address",
          "name": "token",
          "type": "address"
        }
      ],
      "name": "getReserves",
      "outputs": [
        {
          "internalType": "uint256",
          "name": "rToken",
          "type": "uint256"
        },
        {
          "internalType": "uint256",
          "name": "rUSDC",
          "type": "uint256"
        }
      ],
      "stateMutability": "view",
      "type": "function"
    },
    {
      "inputs": [
        {
          "internalType": "address",
          "name": "token",
          "type": "address"
        },
        {
          "internalType": "address",
          "name": "creator",
          "type": "address"
        },
        {
          "internalType": "uint256",
          "name": "tokenSeed",
          "type": "uint256"
        },
        {
          "internalType": "uint256",
          "name": "usdcSeed",
          "type": "uint256"
        }
      ],
      "name": "initPool",
      "outputs": [],
      "stateMutability": "nonpayable",
      "type": "function"
    },
    {
      "inputs": [
        {
          "internalType": "address",
          "name": "",
          "type": "address"
        }
      ],
      "name": "pools",
      "outputs": [
        {
          "internalType": "address",
          "name": "token",
          "type": "address"
        },
        {
          "internalType": "address",
          "name": "creator",
          "type": "address"
        },
        {
          "internalType": "uint256",
          "name": "rToken",
          "type": "uint256"
        },
        {
          "internalType": "uint256",
          "name": "rUSDC",
          "type": "uint256"
        },
        {
          "internalType": "bool",
          "name": "exists",
          "type": "bool"
        }
      ],
      "stateMutability": "view",
      "type": "function"
    },
    {
      "inputs": [
        {
          "internalType": "address",
          "name": "token",
          "type": "address"
        },
        {
          "internalType": "uint256",
          "name": "tokenIn",
          "type": "uint256"
        },
        {
          "internalType": "uint256",
          "name": "minUsdcOut",
          "type": "uint256"
        }
      ],
      "name": "sell",
      "outputs": [],
      "stateMutability": "nonpayable",
      "type": "function"
    },
    {
      "inputs": [],
      "name": "treasury",
      "outputs": [
        {
          "internalType": "address",
          "name": "",
          "type": "address"
        }
      ],
      "stateMutability": "view",
      "type": "function"
    },
    {
      "inputs": [],
      "name": "usdc",
      "outputs": [
        {
          "internalType": "contract IERC20",
          "name": "",
          "type": "address"
        }
      ],
      "stateMutability": "view",
      "type": "function"
    }
  ],
  "bytecode": "0x60c0604052348015600f57600080fd5b506040516110d53803806110d5833981016040819052602c91605d565b6001600160a01b039182166080521660a052608b565b80516001600160a01b0381168114605857600080fd5b919050565b60008060408385031215606f57600080fd5b6076836042565b91506082602084016042565b90509250929050565b60805160a051610ffc6100d9600039600081816101400152610b1c01526000818160d9015281816103e60152818161079e0152818161092801528181610a5e0152610b4b0152610ffc6000f3fe608060405234801561001057600080fd5b506004361061009e5760003560e01c80636a272462116100665780636a27246214610162578063a4063dbc14610175578063a59ac6dd146101f6578063bf333f2c14610209578063c73ee19b1461021257600080fd5b8063249d39e9146100a35780632f8a68c5146100bf5780633e413bee146100d45780633e99c1e41461011357806361d027b31461013b575b600080fd5b6100ac61271081565b6040519081526020015b60405180910390f35b6100d26100cd366004610e54565b610225565b005b6100fb7f000000000000000000000000000000000000000000000000000000000000000081565b6040516001600160a01b0390911681526020016100b6565b610126610121366004610e96565b61056a565b604080519283526020830191909152016100b6565b6100fb7f000000000000000000000000000000000000000000000000000000000000000081565b6100d2610170366004610eb1565b6105bd565b6101c1610183366004610e96565b600060208190529081526040902080546001820154600283015460038401546004909401546001600160a01b03938416949390921692909160ff1685565b604080516001600160a01b0396871681529590941660208601529284019190915260608301521515608082015260a0016100b6565b6100d2610204366004610eb1565b61089b565b6100ac6101f481565b6100ac610220366004610e96565b610dcf565b6001600160a01b03841660009081526020819052604090206004015460ff16156102845760405162461bcd60e51b815260206004820152600b60248201526a506f6f6c2065786973747360a81b60448201526064015b60405180910390fd5b6001600160a01b038416158015906102a457506001600160a01b03831615155b6102db5760405162461bcd60e51b81526020600482015260086024820152673130b21030b2323960c11b604482015260640161027b565b6000821180156102eb5750600081115b6103235760405162461bcd60e51b81526020600482015260096024820152681e995c9bc81cd9595960ba1b604482015260640161027b565b6040516323b872dd60e01b81526001600160a01b038516906323b872dd9061035390339030908790600401610ee4565b6020604051808303816000875af1158015610372573d6000803e3d6000fd5b505050506040513d601f19601f820116820180604052508101906103969190610f08565b6103cf5760405162461bcd60e51b815260206004820152600a602482015269383ab636103a37b5b2b760b11b604482015260640161027b565b6040516323b872dd60e01b81526001600160a01b037f000000000000000000000000000000000000000000000000000000000000000016906323b872dd9061041f90339030908690600401610ee4565b6020604051808303816000875af115801561043e573d6000803e3d6000fd5b505050506040513d601f19601f820116820180604052508101906104629190610f08565b61049a5760405162461bcd60e51b815260206004820152600960248201526870756c6c207573646360b81b604482015260640161027b565b6040805160a0810182526001600160a01b0386811680835286821660208085018281528587018981526060870189815260016080890181815260008881528087528b902099518a546001600160a01b0319908116918b16919091178b559451918a018054909516919098161790925551600287015551600386015592516004909401805460ff191694151594909417909355835186815291820185905291927fd569a23a8cff45c641c5d5e4fb55b5e15e918f9acf0fc42b4909adc31f5f806c910160405180910390a350505050565b6001600160a01b0381166000908152602081905260408120600481015482919060ff166105a95760405162461bcd60e51b815260040161027b90610f2a565b806002015481600301549250925050915091565b6001600160a01b0383166000908152602081905260409020600481015460ff166105f95760405162461bcd60e51b815260040161027b90610f2a565b600083116106335760405162461bcd60e51b81526020600482015260076024820152663d32b9379034b760c91b604482015260640161027b565b6040516323b872dd60e01b81526001600160a01b038516906323b872dd9061066390339030908890600401610ee4565b6020604051808303816000875af1158015610682573d6000803e3d6000fd5b505050506040513d601f19601f820116820180604052508101906106a69190610f08565b6106df5760405162461bcd60e51b815260206004820152600a602482015269383ab636103a37b5b2b760b11b604482015260640161027b565b6000816003015482600201546106f59190610f61565b905060008483600201546107099190610f7e565b905060006107178284610f91565b9050600081856003015461072b9190610fb3565b905085811015801561073d5750600081115b6107745760405162461bcd60e51b8152602060048201526008602482015267736c69707061676560c01b604482015260640161027b565b600285018390556003850182905560405163a9059cbb60e01b8152336004820152602481018290527f00000000000000000000000000000000000000000000000000000000000000006001600160a01b03169063a9059cbb906044016020604051808303816000875af11580156107ef573d6000803e3d6000fd5b505050506040513d601f19601f820116820180604052508101906108139190610f08565b61084b5760405162461bcd60e51b815260206004820152600960248201526873656e64207573646360b81b604482015260640161027b565b604080518881526020810183905233916001600160a01b038b16917f16dd16959a056953a63cf14bf427881e762e54f03d86b864efea8238dd3b822f910160405180910390a35050505050505050565b6001600160a01b0383166000908152602081905260409020600481015460ff166108d75760405162461bcd60e51b815260040161027b90610f2a565b600083116109115760405162461bcd60e51b81526020600482015260076024820152663d32b9379034b760c91b604482015260640161027b565b6040516323b872dd60e01b81526001600160a01b037f000000000000000000000000000000000000000000000000000000000000000016906323b872dd9061096190339030908890600401610ee4565b6020604051808303816000875af1158015610980573d6000803e3d6000fd5b505050506040513d601f19601f820116820180604052508101906109a49190610f08565b6109dc5760405162461bcd60e51b815260206004820152600960248201526870756c6c207573646360b81b604482015260640161027b565b60006127106109ed6101f486610f61565b6109f79190610f91565b90506000610a058286610fb3565b90506000612710610a1884611f40610f61565b610a229190610f91565b90506000610a308285610fb3565b600186015460405163a9059cbb60e01b81526001600160a01b039182166004820152602481018590529192507f0000000000000000000000000000000000000000000000000000000000000000169063a9059cbb906044016020604051808303816000875af1158015610aa7573d6000803e3d6000fd5b505050506040513d601f19601f82011682018060405250810190610acb9190610f08565b610b055760405162461bcd60e51b815260206004820152600b60248201526a3332b29031b932b0ba37b960a91b604482015260640161027b565b60405163a9059cbb60e01b81526001600160a01b037f000000000000000000000000000000000000000000000000000000000000000081166004830152602482018390527f0000000000000000000000000000000000000000000000000000000000000000169063a9059cbb906044016020604051808303816000875af1158015610b94573d6000803e3d6000fd5b505050506040513d601f19601f82011682018060405250810190610bb89190610f08565b610bf05760405162461bcd60e51b815260206004820152600960248201526866656520747265617360b81b604482015260640161027b565b600085600301548660020154610c069190610f61565b90506000848760030154610c1a9190610f7e565b90506000610c288284610f91565b90506000818960020154610c3c9190610fb3565b9050898110158015610c4e5750600081115b610c855760405162461bcd60e51b8152602060048201526008602482015267736c69707061676560c01b604482015260640161027b565b600389018390556002890182905560405163a9059cbb60e01b8152336004820152602481018290526001600160a01b038d169063a9059cbb906044016020604051808303816000875af1158015610ce0573d6000803e3d6000fd5b505050506040513d601f19601f82011682018060405250810190610d049190610f08565b610d3d5760405162461bcd60e51b815260206004820152600a60248201526939b2b732103a37b5b2b760b11b604482015260640161027b565b604080518c8152602081018a905290810182905233906001600160a01b038e16907f7ce543d1780f3bdc3dac42da06c95da802653cd1b212b8d74ec3e3c33ad7095c9060600160405180910390a360405133906001600160a01b038e16907f9f520b3bfc56d06f7065d10b4683b3f57ac8895d5026cd176dee95ce1454cb8d90600090a3505050505050505050505050565b6001600160a01b0381166000908152602081905260408120600481015460ff16610e0b5760405162461bcd60e51b815260040161027b90610f2a565b60028101546003820154610e2790670de0b6b3a7640000610f61565b610e319190610f91565b9392505050565b80356001600160a01b0381168114610e4f57600080fd5b919050565b60008060008060808587031215610e6a57600080fd5b610e7385610e38565b9350610e8160208601610e38565b93969395505050506040820135916060013590565b600060208284031215610ea857600080fd5b610e3182610e38565b600080600060608486031215610ec657600080fd5b610ecf84610e38565b95602085013595506040909401359392505050565b6001600160a01b039384168152919092166020820152604081019190915260600190565b600060208284031215610f1a57600080fd5b81518015158114610e3157600080fd5b6020808252600790820152661b9bc81c1bdbdb60ca1b604082015260600190565b634e487b7160e01b600052601160045260246000fd5b8082028115828204841417610f7857610f78610f4b565b92915050565b80820180821115610f7857610f78610f4b565b600082610fae57634e487b7160e01b600052601260045260246000fd5b500490565b81810381811115610f7857610f78610f4b56fea26469706673582212204a7d3b92e24af9be48b44c320c8e21a709dc21fe15a62127d0f1c716bda82f9864736f6c63430008190033",
  "linkReferences": {},
  "deployedLinkReferences": {}
}